{
  "contractName": "NaiveStateDAO",
  "abi": [
    {
      "constant": true,
      "inputs": [
        {
          "name": "",
          "type": "string"
        }
      ],
      "name": "nays",
      "outputs": [
        {
          "name": "",
          "type": "uint256"
        }
      ],
      "payable": false,
      "stateMutability": "view",
      "type": "function"
    },
    {
      "constant": true,
      "inputs": [
        {
          "name": "",
          "type": "bytes32"
        }
      ],
      "name": "voted",
      "outputs": [
        {
          "name": "",
          "type": "bool"
        }
      ],
      "payable": false,
      "stateMutability": "view",
      "type": "function"
    },
    {
      "constant": true,
      "inputs": [
        {
          "name": "",
          "type": "string"
        }
      ],
      "name": "yays",
      "outputs": [
        {
          "name": "",
          "type": "uint256"
        }
      ],
      "payable": false,
      "stateMutability": "view",
      "type": "function"
    },
    {
      "constant": true,
      "inputs": [],
      "name": "ui",
      "outputs": [
        {
          "name": "",
          "type": "string"
        }
      ],
      "payable": false,
      "stateMutability": "view",
      "type": "function"
    },
    {
      "constant": true,
      "inputs": [],
      "name": "votingPeriodBlocks",
      "outputs": [
        {
          "name": "",
          "type": "uint256"
        }
      ],
      "payable": false,
      "stateMutability": "view",
      "type": "function"
    },
    {
      "constant": true,
      "inputs": [
        {
          "name": "",
          "type": "address"
        }
      ],
      "name": "holdings",
      "outputs": [
        {
          "name": "",
          "type": "uint256"
        }
      ],
      "payable": false,
      "stateMutability": "view",
      "type": "function"
    },
    {
      "constant": true,
      "inputs": [],
      "name": "maxHoldings",
      "outputs": [
        {
          "name": "",
          "type": "uint256"
        }
      ],
      "payable": false,
      "stateMutability": "view",
      "type": "function"
    },
    {
      "constant": true,
      "inputs": [
        {
          "name": "",
          "type": "string"
        }
      ],
      "name": "proposals",
      "outputs": [
        {
          "name": "",
          "type": "uint256"
        }
      ],
      "payable": false,
      "stateMutability": "view",
      "type": "function"
    },
    {
      "inputs": [],
      "payable": false,
      "stateMutability": "nonpayable",
      "type": "constructor"
    },
    {
      "constant": false,
      "inputs": [
        {
          "name": "newUi",
          "type": "string"
        }
      ],
      "name": "set",
      "outputs": [],
      "payable": false,
      "stateMutability": "nonpayable",
      "type": "function"
    },
    {
      "constant": false,
      "inputs": [
        {
          "name": "proposedUi",
          "type": "string"
        }
      ],
      "name": "propose",
      "outputs": [],
      "payable": false,
      "stateMutability": "nonpayable",
      "type": "function"
    },
    {
      "constant": false,
      "inputs": [
        {
          "name": "proposedUi",
          "type": "string"
        },
        {
          "name": "yay",
          "type": "bool"
        }
      ],
      "name": "vote",
      "outputs": [],
      "payable": false,
      "stateMutability": "nonpayable",
      "type": "function"
    },
    {
      "constant": false,
      "inputs": [
        {
          "name": "proposedUi",
          "type": "string"
        }
      ],
      "name": "execute",
      "outputs": [],
      "payable": false,
      "stateMutability": "nonpayable",
      "type": "function"
    },
    {
      "constant": false,
      "inputs": [],
      "name": "join",
      "outputs": [],
      "payable": false,
      "stateMutability": "nonpayable",
      "type": "function"
    }
  ],
  "bytecode": "0x608060405234801561001057600080fd5b506064600281905550336000806101000a81548173ffffffffffffffffffffffffffffffffffffffff021916908373ffffffffffffffffffffffffffffffffffffffff16021790555060f0600381905550611497806100706000396000f3fe608060405234801561001057600080fd5b50600436106100cf5760003560e01c8063aa98df391161008c578063bd590d7e11610066578063bd590d7e146105a0578063dd3ced631461065b578063e54f4faa146106b3578063ffa0d2a4146106d1576100cf565b8063aa98df39146104bd578063b24b7ffd14610578578063b688a36314610596576100cf565b806327d3410c146100d45780634b8e8e771461019b5780634ed3885e1461026a578063887c4251146103255780638b3d78ae1461036b578063a223e05d1461043a575b600080fd5b610199600480360360408110156100ea57600080fd5b810190808035906020019064010000000081111561010757600080fd5b82018360208201111561011957600080fd5b8035906020019184600183028401116401000000008311171561013b57600080fd5b91908080601f016020809104026020016040519081016040528093929190818152602001838380828437600081840152601f19601f8201169050808301925050505050505091929192908035151590602001909291905050506107a0565b005b610254600480360360208110156101b157600080fd5b81019080803590602001906401000000008111156101ce57600080fd5b8201836020820111156101e057600080fd5b8035906020019184600183028401116401000000008311171561020257600080fd5b91908080601f016020809104026020016040519081016040528093929190818152602001838380828437600081840152601f19601f820116905080830192505050505050509192919290505050610b80565b6040518082815260200191505060405180910390f35b6103236004803603602081101561028057600080fd5b810190808035906020019064010000000081111561029d57600080fd5b8201836020820111156102af57600080fd5b803590602001918460018302840111640100000000831117156102d157600080fd5b91908080601f016020809104026020016040519081016040528093929190818152602001838380828437600081840152601f19601f820116905080830192505050505050509192919290505050610bae565b005b6103516004803603602081101561033b57600080fd5b8101908080359060200190929190505050610c21565b604051808215151515815260200191505060405180910390f35b6104246004803603602081101561038157600080fd5b810190808035906020019064010000000081111561039e57600080fd5b8201836020820111156103b057600080fd5b803590602001918460018302840111640100000000831117156103d257600080fd5b91908080601f016020809104026020016040519081016040528093929190818152602001838380828437600081840152601f19601f820116905080830192505050505050509192919290505050610c41565b6040518082815260200191505060405180910390f35b610442610c6f565b6040518080602001828103825283818151815260200191508051906020019080838360005b83811015610482578082015181840152602081019050610467565b50505050905090810190601f1680156104af5780820380516001836020036101000a031916815260200191505b509250505060405180910390f35b610576600480360360208110156104d357600080fd5b81019080803590602001906401000000008111156104f057600080fd5b82018360208201111561050257600080fd5b8035906020019184600183028401116401000000008311171561052457600080fd5b91908080601f016020809104026020016040519081016040528093929190818152602001838380828437600081840152601f19601f820116905080830192505050505050509192919290505050610d0d565b005b610580610fc9565b6040518082815260200191505060405180910390f35b61059e610fcf565b005b610659600480360360208110156105b657600080fd5b81019080803590602001906401000000008111156105d357600080fd5b8201836020820111156105e557600080fd5b8035906020019184600183028401116401000000008311171561060757600080fd5b91908080601f016020809104026020016040519081016040528093929190818152602001838380828437600081840152601f19601f820116905080830192505050505050509192919290505050611061565b005b61069d6004803603602081101561067157600080fd5b81019080803573ffffffffffffffffffffffffffffffffffffffff16906020019092919050505061137a565b6040518082815260200191505060405180910390f35b6106bb611392565b6040518082815260200191505060405180910390f35b61078a600480360360208110156106e757600080fd5b810190808035906020019064010000000081111561070457600080fd5b82018360208201111561071657600080fd5b8035906020019184600183028401116401000000008311171561073857600080fd5b91908080601f016020809104026020016040519081016040528093929190818152602001838380828437600081840152601f19601f820116905080830192505050505050509192919290505050611398565b6040518082815260200191505060405180910390f35b6000600160003373ffffffffffffffffffffffffffffffffffffffff1673ffffffffffffffffffffffffffffffffffffffff16815260200190815260200160002054116107ec57600080fd5b436005836040518082805190602001908083835b602083106108235780518252602082019150602081019050602083039250610800565b6001836020036101000a0380198251168184511680821785525050505050509050019150509081526020016040518091039020541161086157600080fd5b60003383604051602001808373ffffffffffffffffffffffffffffffffffffffff1673ffffffffffffffffffffffffffffffffffffffff1660601b815260140182805190602001908083835b602083106108d057805182526020820191506020810190506020830392506108ad565b6001836020036101000a03801982511681845116808217855250505050505090500192505050604051602081830303815290604052805190602001209050600015156006600083815260200190815260200160002060009054906101000a900460ff1615151461093f57600080fd5b8115610a6257600160003373ffffffffffffffffffffffffffffffffffffffff1673ffffffffffffffffffffffffffffffffffffffff168152602001908152602001600020546007846040518082805190602001908083835b602083106109bb5780518252602082019150602081019050602083039250610998565b6001836020036101000a038019825116818451168082178552505050505050905001915050908152602001604051809103902054016007846040518082805190602001908083835b60208310610a265780518252602082019150602081019050602083039250610a03565b6001836020036101000a038019825116818451168082178552505050505050905001915050908152602001604051809103902081905550610b7b565b600160003373ffffffffffffffffffffffffffffffffffffffff1673ffffffffffffffffffffffffffffffffffffffff168152602001908152602001600020546008846040518082805190602001908083835b60208310610ad85780518252602082019150602081019050602083039250610ab5565b6001836020036101000a038019825116818451168082178552505050505050905001915050908152602001604051809103902054016008846040518082805190602001908083835b60208310610b435780518252602082019150602081019050602083039250610b20565b6001836020036101000a0380198251168184511680821785525050505050509050019150509081526020016040518091039020819055505b505050565b6008818051602081018201805184825260208301602085012081835280955050505050506000915090505481565b6000809054906101000a900473ffffffffffffffffffffffffffffffffffffffff1673ffffffffffffffffffffffffffffffffffffffff163373ffffffffffffffffffffffffffffffffffffffff1614610c0757600080fd5b8060049080519060200190610c1d9291906113c6565b5050565b60066020528060005260406000206000915054906101000a900460ff1681565b6007818051602081018201805184825260208301602085012081835280955050505050506000915090505481565b60048054600181600116156101000203166002900480601f016020809104026020016040519081016040528092919081815260200182805460018160011615610100020316600290048015610d055780601f10610cda57610100808354040283529160200191610d05565b820191906000526020600020905b815481529060010190602001808311610ce857829003601f168201915b505050505081565b436005826040518082805190602001908083835b60208310610d445780518252602082019150602081019050602083039250610d21565b6001836020036101000a03801982511681845116808217855250505050505090500191505090815260200160405180910390205410610d8257600080fd5b60046040516020018082805460018160011615610100020316600290048015610de25780601f10610dc0576101008083540402835291820191610de2565b820191906000526020600020905b815481529060010190602001808311610dce575b505091505060405160208183030381529060405280519060200120816040516020018082805190602001908083835b60208310610e345780518252602082019150602081019050602083039250610e11565b6001836020036101000a038019825116818451168082178552505050505050905001915050604051602081830303815290604052805190602001201415610e7a57600080fd5b60035443016005826040518082805190602001908083835b60208310610eb55780518252602082019150602081019050602083039250610e92565b6001836020036101000a0380198251168184511680821785525050505050509050019150509081526020016040518091039020819055506007816040518082805190602001908083835b60208310610f225780518252602082019150602081019050602083039250610eff565b6001836020036101000a0380198251168184511680821785525050505050509050019150509081526020016040518091039020600090556008816040518082805190602001908083835b60208310610f8f5780518252602082019150602081019050602083039250610f6c565b6001836020036101000a03801982511681845116808217855250505050505090500191505090815260200160405180910390206000905550565b60035481565b6000600160003373ffffffffffffffffffffffffffffffffffffffff1673ffffffffffffffffffffffffffffffffffffffff168152602001908152602001600020541461101b57600080fd5b60018060003373ffffffffffffffffffffffffffffffffffffffff1673ffffffffffffffffffffffffffffffffffffffff16815260200190815260200160002081905550565b436005826040518082805190602001908083835b602083106110985780518252602082019150602081019050602083039250611075565b6001836020036101000a0380198251168184511680821785525050505050509050019150509081526020016040518091039020541061113f576040517f08c379a000000000000000000000000000000000000000000000000000000000815260040180806020018281038252601b8152602001807f566f74696e6720706572696f64206861736e277420706173736564000000000081525060200191505060405180910390fd5b6008816040518082805190602001908083835b602083106111755780518252602082019150602081019050602083039250611152565b6001836020036101000a0380198251168184511680821785525050505050509050019150509081526020016040518091039020546007826040518082805190602001908083835b602083106111df57805182526020820191506020810190506020830392506111bc565b6001836020036101000a03801982511681845116808217855250505050505090500191505090815260200160405180910390205411611286576040517f08c379a000000000000000000000000000000000000000000000000000000000815260040180806020018281038252600c8152602001807f446964206e6f742070617373000000000000000000000000000000000000000081525060200191505060405180910390fd5b6007816040518082805190602001908083835b602083106112bc5780518252602082019150602081019050602083039250611299565b6001836020036101000a0380198251168184511680821785525050505050509050019150509081526020016040518091039020600090556008816040518082805190602001908083835b602083106113295780518252602082019150602081019050602083039250611306565b6001836020036101000a03801982511681845116808217855250505050505090500191505090815260200160405180910390206000905580600490805190602001906113769291906113c6565b5050565b60016020528060005260406000206000915090505481565b60025481565b6005818051602081018201805184825260208301602085012081835280955050505050506000915090505481565b828054600181600116156101000203166002900490600052602060002090601f016020900481019282601f1061140757805160ff1916838001178555611435565b82800160010185558215611435579182015b82811115611434578251825591602001919060010190611419565b5b5090506114429190611446565b5090565b61146891905b8082111561146457600081600090555060010161144c565b5090565b9056fea165627a7a723058209f0490fda3820bd349f63e109390b02cab04882cdf89a8074805a1f3842f6a130029",
  "source": "pragma solidity >=0.4.21 <0.6.0;\n\ncontract NaiveStateDAO {\n  address owner;\n\n  mapping(address => uint256) public holdings;\n  uint256 public maxHoldings;\n  uint256 public votingPeriodBlocks;\n\n  string public ui;\n\n  // mapping from proposed ui, to the block of the end of the voting period\n  mapping(string => uint256) public proposals;\n\n  // keccak(member, proposedUi) => voted\n  mapping(bytes32 => bool) public voted;\n\n  mapping(string => uint256) public yays;\n  mapping(string => uint256) public nays;\n\n  constructor() public {\n    maxHoldings = 100;\n    owner = msg.sender;\n    votingPeriodBlocks = 240; // about an hour\n  }\n\n  function set(string memory newUi) public {\n    require(msg.sender == owner);\n    ui = newUi;\n  }\n\n  // propose state change\n  function propose(string memory proposedUi) public {\n    // ui never proposed or voting period has passed\n    require(proposals[proposedUi] < block.number);\n    require(keccak256(abi.encodePacked(proposedUi)) != keccak256(abi.encodePacked(ui)));\n    proposals[proposedUi] = block.number + votingPeriodBlocks;\n    delete yays[proposedUi];\n    delete nays[proposedUi];\n  }\n\n  // vote on proposal\n  function vote(string memory proposedUi, bool yay) public {\n    // message sender is a member\n    require(holdings[msg.sender] > 0);\n    // voting period has not passed\n    require(proposals[proposedUi] > block.number);\n    bytes32 voteId = keccak256(abi.encodePacked(msg.sender, proposedUi));\n    // member has not voted\n    require(voted[voteId] == false);\n    if (yay) {\n      yays[proposedUi] = yays[proposedUi] + holdings[msg.sender];\n    } else {\n      nays[proposedUi] = nays[proposedUi] + holdings[msg.sender];\n    }\n  }\n\n  // execute proposal\n  function execute(string memory proposedUi) public {\n    // voting period has passed\n    require(proposals[proposedUi] < block.number, \"Voting period hasn't passed\");\n\n    // vote passed\n    require(yays[proposedUi] > nays[proposedUi], \"Did not pass\");\n\n    // reset yays and nays\n    delete yays[proposedUi];\n    delete nays[proposedUi];\n\n    ui = proposedUi;\n  }\n\n  // join\n  function join() public {\n    require(holdings[msg.sender] == 0);\n    holdings[msg.sender] = 1;\n  }\n}\n",
  "sourcePath": "/Users/jesse/projects/daoUI/contracts/NaiveStateDAO.sol",
  "compiler": {
    "name": "solc",
    "version": "0.5.8+commit.23d335f2.Emscripten.clang"
  },
  "schemaVersion": "3.0.11",
  "updatedAt": "2019-09-08T00:18:50.540Z",
  "devdoc": {
    "methods": {}
  },
  "userdoc": {
    "methods": {}
  }
}